:10015F0010213F065B4F666D7D077F6F777C395EA1
:10016F007971084500000000000000001035000004
:10017F00000000000000000000000000000002333B
:0B018F000101014D00C18002310000A1
:0E01E1007F0A7E00EF1FAC0670011E4C70F608
:0101EF0022ED
:1000FC00E4FDEDB54D33A200E43325E0FFE433FE1F
:10010C00EF24FFFFEE34FFFEEF2532F532EE3531F2
:10011C00F531E532B45E07E531B40102C200E532D7
:10012C0045317002D200300023E4F580ED1392A229
:10013C00EDC3131392A3ED1313543F1392A4744500
:10014C002DF8E62421F8E6F5801201E10DED6408A6
:02015C0070A091
:01015E00227E
:10008F00E4FF7480A807088002C313D8FCF4F5902E
:10009F00E4FEEF25E025E02EFDE4FC74352DF8E6B7
:1000AF00F47021C374039EFBE590A803088002C37C
:1000BF0013D8FC30E00E7445254DF8A605D200E4A8
:1000CF00F531F532C374039EFBE590A80308800257
:1000DF00C313D8FC5401F4FB74352DF8A6030CBCE4
:0C00EF0002B90EBE04AC0FEF6404709662
:0100FB0022E2
:10019B00E533700E30B00BE54D7005754D078002E1
:1001AB00154DA2B0E433F533E534700F30B10CE5E7
:1001BB004DB40705E4F54D8002054DA2B1E433F5CE
:0201CB003422DC
:1001CD00E4F590F580D2B0D2B11200FC12008F127E
:0401DD00019B80F50D
:03000000020003F8
:0C000300787FE4F6D8FD75814D02004ABC
:10000F000201CDE493A3F8E493A34003F68001F239
:10001F0008DFF48029E493A3F85407240CC8C333F2
:10002F00C4540F4420C8834004F456800146F6DFC1
:10003F00E4800B010204081020408090015FE47EF1
:10004F00019360BCA3FF543F30E509541FFEE493B6
:10005F00A360010ECF54C025E060A840B8E493A37D
:10006F00FAE493A3F8E493A3C8C582C8CAC583CAA8
:10007F00F0A3C8C582C8CAC583CADFE9DEE780BE60
:01019A000064
:00000001FF
